{
  "contractName": "CampaignFactory",
  "abi": [
    {
      "constant": true,
      "inputs": [
        {
          "name": "",
          "type": "uint256"
        }
      ],
      "name": "deployedCampaigns",
      "outputs": [
        {
          "name": "",
          "type": "address"
        }
      ],
      "payable": false,
      "stateMutability": "view",
      "type": "function",
      "signature": "0x339d50a5"
    },
    {
      "constant": false,
      "inputs": [
        {
          "name": "minimum",
          "type": "uint256"
        },
        {
          "name": "forWho",
          "type": "address"
        },
        {
          "name": "CampaignName",
          "type": "string"
        },
        {
          "name": "des",
          "type": "string"
        },
        {
          "name": "goal",
          "type": "uint256"
        }
      ],
      "name": "createCampaign",
      "outputs": [],
      "payable": false,
      "stateMutability": "nonpayable",
      "type": "function",
      "signature": "0x44b0c856"
    },
    {
      "constant": true,
      "inputs": [],
      "name": "getDeployedCampaigns",
      "outputs": [
        {
          "name": "",
          "type": "address[]"
        }
      ],
      "payable": false,
      "stateMutability": "view",
      "type": "function",
      "signature": "0x4acb9d4f"
    },
    {
      "constant": true,
      "inputs": [
        {
          "name": "b",
          "type": "address"
        }
      ],
      "name": "getMyCampaigns",
      "outputs": [
        {
          "name": "",
          "type": "address[]"
        }
      ],
      "payable": false,
      "stateMutability": "view",
      "type": "function",
      "signature": "0x64c90966"
    },
    {
      "constant": false,
      "inputs": [
        {
          "name": "index",
          "type": "uint256"
        }
      ],
      "name": "remove",
      "outputs": [],
      "payable": false,
      "stateMutability": "nonpayable",
      "type": "function",
      "signature": "0x4cc82215"
    }
  ],
  "bytecode": "0x608060405234801561001057600080fd5b50613039806100206000396000f3fe60806040526004361061006d576000357c0100000000000000000000000000000000000000000000000000000000900463ffffffff168063339d50a51461007257806344b0c856146100ed5780634acb9d4f146102805780634cc82215146102ec57806364c9096614610327575b600080fd5b34801561007e57600080fd5b506100ab6004803603602081101561009557600080fd5b81019080803590602001909291905050506103cd565b604051808273ffffffffffffffffffffffffffffffffffffffff1673ffffffffffffffffffffffffffffffffffffffff16815260200191505060405180910390f35b3480156100f957600080fd5b5061027e600480360360a081101561011057600080fd5b8101908080359060200190929190803573ffffffffffffffffffffffffffffffffffffffff1690602001909291908035906020019064010000000081111561015757600080fd5b82018360208201111561016957600080fd5b8035906020019184600183028401116401000000008311171561018b57600080fd5b91908080601f016020809104026020016040519081016040528093929190818152602001838380828437600081840152601f19601f820116905080830192505050505050509192919290803590602001906401000000008111156101ee57600080fd5b82018360208201111561020057600080fd5b8035906020019184600183028401116401000000008311171561022257600080fd5b91908080601f016020809104026020016040519081016040528093929190818152602001838380828437600081840152601f19601f8201169050808301925050505050505091929192908035906020019092919050505061040b565b005b34801561028c57600080fd5b5061029561069a565b6040518080602001828103825283818151815260200191508051906020019060200280838360005b838110156102d85780820151818401526020810190506102bd565b505050509050019250505060405180910390f35b3480156102f857600080fd5b506103256004803603602081101561030f57600080fd5b8101908080359060200190929190505050610728565b005b34801561033357600080fd5b506103766004803603602081101561034a57600080fd5b81019080803573ffffffffffffffffffffffffffffffffffffffff16906020019092919050505061080d565b6040518080602001828103825283818151815260200191508051906020019060200280838360005b838110156103b957808201518184015260208101905061039e565b505050509050019250505060405180910390f35b6000818154811015156103dc57fe5b906000526020600020016000915054906101000a900473ffffffffffffffffffffffffffffffffffffffff1681565b600085338686868661041b6108da565b808781526020018673ffffffffffffffffffffffffffffffffffffffff1673ffffffffffffffffffffffffffffffffffffffff1681526020018573ffffffffffffffffffffffffffffffffffffffff1673ffffffffffffffffffffffffffffffffffffffff1681526020018060200180602001848152602001838103835286818151815260200191508051906020019080838360005b838110156104cc5780820151818401526020810190506104b1565b50505050905090810190601f1680156104f95780820380516001836020036101000a031916815260200191505b50838103825285818151815260200191508051906020019080838360005b83811015610532578082015181840152602081019050610517565b50505050905090810190601f16801561055f5780820380516001836020036101000a031916815260200191505b5098505050505050505050604051809103906000f080158015610586573d6000803e3d6000fd5b50905060008190806001815401808255809150509060018203906000526020600020016000909192909190916101000a81548173ffffffffffffffffffffffffffffffffffffffff021916908373ffffffffffffffffffffffffffffffffffffffff16021790555050600160008673ffffffffffffffffffffffffffffffffffffffff1673ffffffffffffffffffffffffffffffffffffffff1681526020019081526020016000208190806001815401808255809150509060018203906000526020600020016000909192909190916101000a81548173ffffffffffffffffffffffffffffffffffffffff021916908373ffffffffffffffffffffffffffffffffffffffff16021790555050505050505050565b6060600080548060200260200160405190810160405280929190818152602001828054801561071e57602002820191906000526020600020905b8160009054906101000a900473ffffffffffffffffffffffffffffffffffffffff1673ffffffffffffffffffffffffffffffffffffffff16815260200190600101908083116106d4575b5050505050905090565b6000805490508110151561073b5761080a565b60008190505b6001600080549050038110156107f25760006001820181548110151561076357fe5b9060005260206000200160009054906101000a900473ffffffffffffffffffffffffffffffffffffffff1660008281548110151561079d57fe5b9060005260206000200160006101000a81548173ffffffffffffffffffffffffffffffffffffffff021916908373ffffffffffffffffffffffffffffffffffffffff1602179055508080600101915050610741565b50600080548091906001900361080891906108ea565b505b50565b6060600160008373ffffffffffffffffffffffffffffffffffffffff1673ffffffffffffffffffffffffffffffffffffffff1681526020019081526020016000208054806020026020016040519081016040528092919081815260200182805480156108ce57602002820191906000526020600020905b8160009054906101000a900473ffffffffffffffffffffffffffffffffffffffff1673ffffffffffffffffffffffffffffffffffffffff1681526020019060010190808311610884575b50505050509050919050565b6040516126d28061093c83390190565b815481835581811115610911578183600052602060002091820191016109109190610916565b5b505050565b61093891905b8082111561093457600081600090555060010161091c565b5090565b9056fe60806040523480156200001157600080fd5b50604051620026d2380380620026d2833981018060405260c08110156200003757600080fd5b8101908080519060200190929190805190602001909291908051906020019092919080516401000000008111156200006e57600080fd5b828101905060208101848111156200008557600080fd5b8151856001820283011164010000000082111715620000a357600080fd5b50509291906020018051640100000000811115620000c057600080fd5b82810190506020810184811115620000d757600080fd5b8151856001820283011164010000000082111715620000f557600080fd5b50509291906020018051906020019092919050505084600360006101000a81548173ffffffffffffffffffffffffffffffffffffffff021916908373ffffffffffffffffffffffffffffffffffffffff1602179055508560048190555083600760006101000a81548173ffffffffffffffffffffffffffffffffffffffff021916908373ffffffffffffffffffffffffffffffffffffffff1602179055508260089080519060200190620001ab929190620001d8565b508160099080519060200190620001c4929190620001d8565b5080600a8190555050505050505062000287565b828054600181600116156101000203166002900490600052602060002090601f016020900481019282601f106200021b57805160ff19168380011785556200024c565b828001600101855582156200024c579182015b828111156200024b5782518255916020019190600101906200022e565b5b5090506200025b91906200025f565b5090565b6200028491905b808211156200028057600081600090555060010162000266565b5090565b90565b61243b80620002976000396000f3fe60806040526004361061015f576000357c0100000000000000000000000000000000000000000000000000000000900463ffffffff16806303441006146101645780630a1443911461019f578063208152db146102085780633410452a1461023357806338af3eed1461025e5780634051ddac146102b5578063481c6a751461043a57806348639485146104915780634a79d50c146105595780634f995d08146105e957806370740aab1461069d57806381d12c581461072d57806382fde0931461082d57806383920e9014610858578063852ea2031461090c5780638a9cfd55146109475780638f4cf24714610a39578063937e09b114610a64578063961f0b2814610a8f5780639ace38c214610bee5780639b2e470214610c705780639e7a13ad14610ceb578063b4c2f72714610d6d578063c52ed53414610e8d578063d7bb99ba14610eb8578063d7d1bbdb14610ec2578063e89e4ed614610efd575b600080fd5b34801561017057600080fd5b5061019d6004803603602081101561018757600080fd5b8101908080359060200190929190505050610fbc565b005b3480156101ab57600080fd5b506101ee600480360360208110156101c257600080fd5b81019080803573ffffffffffffffffffffffffffffffffffffffff16906020019092919050505061118b565b604051808215151515815260200191505060405180910390f35b34801561021457600080fd5b5061021d6111ab565b6040518082815260200191505060405180910390f35b34801561023f57600080fd5b506102486111b1565b6040518082815260200191505060405180910390f35b34801561026a57600080fd5b506102736111be565b604051808273ffffffffffffffffffffffffffffffffffffffff1673ffffffffffffffffffffffffffffffffffffffff16815260200191505060405180910390f35b3480156102c157600080fd5b506102ca6111e4565b604051808a81526020018981526020018881526020018781526020018673ffffffffffffffffffffffffffffffffffffffff1673ffffffffffffffffffffffffffffffffffffffff1681526020018573ffffffffffffffffffffffffffffffffffffffff1673ffffffffffffffffffffffffffffffffffffffff1681526020018060200180602001848152602001838103835286818151815260200191508051906020019080838360005b83811015610390578082015181840152602081019050610375565b50505050905090810190601f1680156103bd5780820380516001836020036101000a031916815260200191505b50838103825285818151815260200191508051906020019080838360005b838110156103f65780820151818401526020810190506103db565b50505050905090810190601f1680156104235780820380516001836020036101000a031916815260200191505b509b50505050505050505050505060405180910390f35b34801561044657600080fd5b5061044f6113bb565b604051808273ffffffffffffffffffffffffffffffffffffffff1673ffffffffffffffffffffffffffffffffffffffff16815260200191505060405180910390f35b34801561049d57600080fd5b50610557600480360360208110156104b457600080fd5b81019080803590602001906401000000008111156104d157600080fd5b8201836020820111156104e357600080fd5b8035906020019184600183028401116401000000008311171561050557600080fd5b91908080601f016020809104026020016040519081016040528093929190818152602001838380828437600081840152601f19601f8201169050808301925050505050505091929192905050506113e1565b005b34801561056557600080fd5b5061056e611475565b6040518080602001828103825283818151815260200191508051906020019080838360005b838110156105ae578082015181840152602081019050610593565b50505050905090810190601f1680156105db5780820380516001836020036101000a031916815260200191505b509250505060405180910390f35b3480156105f557600080fd5b506105fe611513565b604051808060200180602001838103835285818151815260200191508051906020019060200280838360005b8381101561064557808201518184015260208101905061062a565b50505050905001838103825284818151815260200191508051906020019060200280838360005b8381101561068757808201518184015260208101905061066c565b5050505090500194505050505060405180910390f35b3480156106a957600080fd5b506106b2611667565b6040518080602001828103825283818151815260200191508051906020019080838360005b838110156106f25780820151818401526020810190506106d7565b50505050905090810190601f16801561071f5780820380516001836020036101000a031916815260200191505b509250505060405180910390f35b34801561073957600080fd5b506107666004803603602081101561075057600080fd5b8101908080359060200190929190505050611705565b60405180806020018681526020018573ffffffffffffffffffffffffffffffffffffffff1673ffffffffffffffffffffffffffffffffffffffff16815260200184151515158152602001838152602001828103825287818151815260200191508051906020019080838360005b838110156107ee5780820151818401526020810190506107d3565b50505050905090810190601f16801561081b5780820380516001836020036101000a031916815260200191505b50965050505050505060405180910390f35b34801561083957600080fd5b5061084261180f565b6040518082815260200191505060405180910390f35b34801561086457600080fd5b5061086d611815565b604051808060200180602001838103835285818151815260200191508051906020019060200280838360005b838110156108b4578082015181840152602081019050610899565b50505050905001838103825284818151815260200191508051906020019060200280838360005b838110156108f65780820151818401526020810190506108db565b5050505090500194505050505060405180910390f35b34801561091857600080fd5b506109456004803603602081101561092f57600080fd5b8101908080359060200190929190505050611969565b005b34801561095357600080fd5b50610a376004803603606081101561096a57600080fd5b810190808035906020019064010000000081111561098757600080fd5b82018360208201111561099957600080fd5b803590602001918460018302840111640100000000831117156109bb57600080fd5b91908080601f016020809104026020016040519081016040528093929190818152602001838380828437600081840152601f19601f82011690508083019250505050505050919291929080359060200190929190803573ffffffffffffffffffffffffffffffffffffffff1690602001909291905050506119ab565b005b348015610a4557600080fd5b50610a4e611ac6565b6040518082815260200191505060405180910390f35b348015610a7057600080fd5b50610a79611ad3565b6040518082815260200191505060405180910390f35b348015610a9b57600080fd5b50610bec60048036036040811015610ab257600080fd5b8101908080359060200190640100000000811115610acf57600080fd5b820183602082011115610ae157600080fd5b80359060200191846001830284011164010000000083111715610b0357600080fd5b91908080601f016020809104026020016040519081016040528093929190818152602001838380828437600081840152601f19601f82011690508083019250505050505050919291929080359060200190640100000000811115610b6657600080fd5b820183602082011115610b7857600080fd5b80359060200191846001830284011164010000000083111715610b9a57600080fd5b91908080601f016020809104026020016040519081016040528093929190818152602001838380828437600081840152601f19601f820116905080830192505050505050509192919290505050611ad9565b005b348015610bfa57600080fd5b50610c2760048036036020811015610c1157600080fd5b8101908080359060200190929190505050611b68565b604051808373ffffffffffffffffffffffffffffffffffffffff1673ffffffffffffffffffffffffffffffffffffffff1681526020018281526020019250505060405180910390f35b348015610c7c57600080fd5b50610ce960048036036060811015610c9357600080fd5b81019080803573ffffffffffffffffffffffffffffffffffffffff169060200190929190803573ffffffffffffffffffffffffffffffffffffffff16906020019092919080359060200190929190505050611bbb565b005b348015610cf757600080fd5b50610d2460048036036020811015610d0e57600080fd5b8101908080359060200190929190505050611c60565b604051808373ffffffffffffffffffffffffffffffffffffffff1673ffffffffffffffffffffffffffffffffffffffff1681526020018281526020019250505060405180910390f35b348015610d7957600080fd5b50610da660048036036020811015610d9057600080fd5b8101908080359060200190929190505050611cb3565b604051808060200180602001838103835285818151815260200191508051906020019080838360005b83811015610dea578082015181840152602081019050610dcf565b50505050905090810190601f168015610e175780820380516001836020036101000a031916815260200191505b50838103825284818151815260200191508051906020019080838360005b83811015610e50578082015181840152602081019050610e35565b50505050905090810190601f168015610e7d5780820380516001836020036101000a031916815260200191505b5094505050505060405180910390f35b348015610e9957600080fd5b50610ea2611e16565b6040518082815260200191505060405180910390f35b610ec0611e22565b005b348015610ece57600080fd5b50610efb60048036036020811015610ee557600080fd5b810190808035906020019092919050505061206e565b005b348015610f0957600080fd5b50610f3660048036036020811015610f2057600080fd5b81019080803590602001909291905050506121b4565b604051808060200183151515158152602001828103825284818151815260200191508051906020019080838360005b83811015610f80578082015181840152602081019050610f65565b50505050905090810190601f168015610fad5780820380516001836020036101000a031916815260200191505b50935050505060405180910390f35b6000600282815481101515610fcd57fe5b906000526020600020906005020190508060020160149054906101000a900460ff16151515610ffb57600080fd5b600260065481151561100957fe5b04816003015411151561101b57600080fd5b8060020160009054906101000a900473ffffffffffffffffffffffffffffffffffffffff1673ffffffffffffffffffffffffffffffffffffffff166108fc82600101549081150290604051600060405180830381858888f19350505050158015611089573d6000803e3d6000fd5b5060018160020160146101000a81548160ff0219169083151502179055506110af61228c565b60408051908101604052808360020160009054906101000a900473ffffffffffffffffffffffffffffffffffffffff1673ffffffffffffffffffffffffffffffffffffffff16815260200183600101548152509050600c819080600181540180825580915050906001820390600052602060002090600202016000909192909190915060008201518160000160006101000a81548173ffffffffffffffffffffffffffffffffffffffff021916908373ffffffffffffffffffffffffffffffffffffffff16021790555060208201518160010155505050505050565b60056020528060005260406000206000915054906101000a900460ff1681565b600a5481565b6000600280549050905090565b600760009054906101000a900473ffffffffffffffffffffffffffffffffffffffff1681565b60008060008060008060608060006004543073ffffffffffffffffffffffffffffffffffffffff1631600280549050600654600360009054906101000a900473ffffffffffffffffffffffffffffffffffffffff16600760009054906101000a900473ffffffffffffffffffffffffffffffffffffffff1660086009600a54839350828054600181600116156101000203166002900480601f0160208091040260200160405190810160405280929190818152602001828054600181600116156101000203166002900480156112fb5780601f106112d0576101008083540402835291602001916112fb565b820191906000526020600020905b8154815290600101906020018083116112de57829003601f168201915b50505050509250818054600181600116156101000203166002900480601f0160208091040260200160405190810160405280929190818152602001828054600181600116156101000203166002900480156113975780601f1061136c57610100808354040283529160200191611397565b820191906000526020600020905b81548152906001019060200180831161137a57829003601f168201915b50505050509150985098509850985098509850985098509850909192939495969798565b600360009054906101000a900473ffffffffffffffffffffffffffffffffffffffff1681565b6113e96122bc565b604080519081016040528083815260200160001515815250905060018190806001815401808255809150509060018203906000526020600020906002020160009091929091909150600082015181600001908051906020019061144d9291906122d8565b5060208201518160010160006101000a81548160ff0219169083151502179055505050505050565b60088054600181600116156101000203166002900480601f01602080910402602001604051908101604052809291908181526020018280546001816001161561010002031660029004801561150b5780601f106114e05761010080835404028352916020019161150b565b820191906000526020600020905b8154815290600101906020018083116114ee57829003601f168201915b505050505081565b6060806060600b8054905060405190808252806020026020018201604052801561154c5781602001602082028038833980820191505090505b5090506060600b805490506040519080825280602002602001820160405280156115855781602001602082028038833980820191505090505b50905060008090505b600b8054905081101561165a576000600b828154811015156115ac57fe5b906000526020600020906002020190508060000160009054906101000a900473ffffffffffffffffffffffffffffffffffffffff1684838151811015156115ef57fe5b9060200190602002019073ffffffffffffffffffffffffffffffffffffffff16908173ffffffffffffffffffffffffffffffffffffffff16815250508060010154838381518110151561163e57fe5b906020019060200201818152505050808060010191505061158e565b5081819350935050509091565b60098054600181600116156101000203166002900480601f0160208091040260200160405190810160405280929190818152602001828054600181600116156101000203166002900480156116fd5780601f106116d2576101008083540402835291602001916116fd565b820191906000526020600020905b8154815290600101906020018083116116e057829003601f168201915b505050505081565b60028181548110151561171457fe5b9060005260206000209060050201600091509050806000018054600181600116156101000203166002900480601f0160208091040260200160405190810160405280929190818152602001828054600181600116156101000203166002900480156117c05780601f10611795576101008083540402835291602001916117c0565b820191906000526020600020905b8154815290600101906020018083116117a357829003601f168201915b5050505050908060010154908060020160009054906101000a900473ffffffffffffffffffffffffffffffffffffffff16908060020160149054906101000a900460ff16908060030154905085565b60065481565b6060806060600c8054905060405190808252806020026020018201604052801561184e5781602001602082028038833980820191505090505b5090506060600c805490506040519080825280602002602001820160405280156118875781602001602082028038833980820191505090505b50905060008090505b600c8054905081101561195c576000600c828154811015156118ae57fe5b906000526020600020906002020190508060000160009054906101000a900473ffffffffffffffffffffffffffffffffffffffff1684838151811015156118f157fe5b9060200190602002019073ffffffffffffffffffffffffffffffffffffffff16908173ffffffffffffffffffffffffffffffffffffffff16815250508060010154838381518110151561194057fe5b9060200190602002018181525050508080600101915050611890565b5081819350935050509091565b600060018281548110151561197a57fe5b9060005260206000209060020201905060018160010160006101000a81548160ff0219169083151502179055505050565b6119b3612358565b60a0604051908101604052808581526020018481526020018373ffffffffffffffffffffffffffffffffffffffff16815260200160001515815260200160008152509050600281908060018154018082558091505090600182039060005260206000209060050201600090919290919091506000820151816000019080519060200190611a419291906122d8565b506020820151816001015560408201518160020160006101000a81548173ffffffffffffffffffffffffffffffffffffffff021916908373ffffffffffffffffffffffffffffffffffffffff16021790555060608201518160020160146101000a81548160ff0219169083151502179055506080820151816003015550505050505050565b6000600180549050905090565b60045481565b611ae16123a0565b6040805190810160405280848152602001838152509050600081908060018154018082558091505090600182039060005260206000209060020201600090919290919091506000820151816000019080519060200190611b429291906122d8565b506020820151816001019080519060200190611b5f9291906122d8565b50505050505050565b600c81815481101515611b7757fe5b90600052602060002090600202016000915090508060000160009054906101000a900473ffffffffffffffffffffffffffffffffffffffff16908060010154905082565b60008390508073ffffffffffffffffffffffffffffffffffffffff16634cc82215836040518263ffffffff167c010000000000000000000000000000000000000000000000000000000002815260040180828152602001915050600060405180830381600087803b158015611c2f57600080fd5b505af1158015611c43573d6000803e3d6000fd5b505050508273ffffffffffffffffffffffffffffffffffffffff16ff5b600b81815481101515611c6f57fe5b90600052602060002090600202016000915090508060000160009054906101000a900473ffffffffffffffffffffffffffffffffffffffff16908060010154905082565b600081815481101515611cc257fe5b9060005260206000209060020201600091509050806000018054600181600116156101000203166002900480601f016020809104026020016040519081016040528092919081815260200182805460018160011615610100020316600290048015611d6e5780601f10611d4357610100808354040283529160200191611d6e565b820191906000526020600020905b815481529060010190602001808311611d5157829003601f168201915b505050505090806001018054600181600116156101000203166002900480601f016020809104026020016040519081016040528092919081815260200182805460018160011615610100020316600290048015611e0c5780601f10611de157610100808354040283529160200191611e0c565b820191906000526020600020905b815481529060010190602001808311611def57829003601f168201915b5050505050905082565b60008080549050905090565b6004543410151515611e3357600080fd5b60011515600560003373ffffffffffffffffffffffffffffffffffffffff1673ffffffffffffffffffffffffffffffffffffffff16815260200190815260200160002060009054906101000a900460ff1615151415611f4957611e946123ba565b60408051908101604052803373ffffffffffffffffffffffffffffffffffffffff168152602001348152509050600b819080600181540180825580915050906001820390600052602060002090600202016000909192909190915060008201518160000160006101000a81548173ffffffffffffffffffffffffffffffffffffffff021916908373ffffffffffffffffffffffffffffffffffffffff160217905550602082015181600101555050505061206c565b6001600560003373ffffffffffffffffffffffffffffffffffffffff1673ffffffffffffffffffffffffffffffffffffffff16815260200190815260200160002060006101000a81548160ff021916908315150217905550600660008154809291906001019190505550611fbb6123ba565b60408051908101604052803373ffffffffffffffffffffffffffffffffffffffff168152602001348152509050600b819080600181540180825580915050906001820390600052602060002090600202016000909192909190915060008201518160000160006101000a81548173ffffffffffffffffffffffffffffffffffffffff021916908373ffffffffffffffffffffffffffffffffffffffff16021790555060208201518160010155505050505b565b600060028281548110151561207f57fe5b90600052602060002090600502019050600560003373ffffffffffffffffffffffffffffffffffffffff1673ffffffffffffffffffffffffffffffffffffffff16815260200190815260200160002060009054906101000a900460ff1615156120e757600080fd5b8060040160003373ffffffffffffffffffffffffffffffffffffffff1673ffffffffffffffffffffffffffffffffffffffff16815260200190815260200160002060009054906101000a900460ff1615151561214257600080fd5b60018160040160003373ffffffffffffffffffffffffffffffffffffffff1673ffffffffffffffffffffffffffffffffffffffff16815260200190815260200160002060006101000a81548160ff02191690831515021790555080600301600081548092919060010191905055505050565b6001818154811015156121c357fe5b9060005260206000209060020201600091509050806000018054600181600116156101000203166002900480601f01602080910402602001604051908101604052809291908181526020018280546001816001161561010002031660029004801561226f5780601f106122445761010080835404028352916020019161226f565b820191906000526020600020905b81548152906001019060200180831161225257829003601f168201915b5050505050908060010160009054906101000a900460ff16905082565b6040805190810160405280600073ffffffffffffffffffffffffffffffffffffffff168152602001600081525090565b6040805190810160405280606081526020016000151581525090565b828054600181600116156101000203166002900490600052602060002090601f016020900481019282601f1061231957805160ff1916838001178555612347565b82800160010185558215612347579182015b8281111561234657825182559160200191906001019061232b565b5b50905061235491906123ea565b5090565b60a0604051908101604052806060815260200160008152602001600073ffffffffffffffffffffffffffffffffffffffff168152602001600015158152602001600081525090565b604080519081016040528060608152602001606081525090565b6040805190810160405280600073ffffffffffffffffffffffffffffffffffffffff168152602001600081525090565b61240c91905b808211156124085760008160009055506001016123f0565b5090565b9056fea165627a7a72305820d576cb6fe1fa33d0babb8ee03d57a4564fc395cf1cc8ecb08ceaf436e52a6dd10029a165627a7a7230582032e84c3d029ac1ad607d18dc18b3ac8f193df26880898c2031cc6e11c348708c0029",
  "source": "pragma solidity ^0.5.0;\r\n//pragma experimental ABIEncoderV2;\r\n\r\ncontract CampaignFactory {\r\n    address[] public deployedCampaigns;\r\n    mapping(address=> address[]) deployed;\r\n    \r\n\r\n    \r\n    function createCampaign(uint minimum , address payable forWho , string memory CampaignName , string memory des, uint goal) public {\r\n    address newCampaign = address(new Campaign(minimum , msg.sender , forWho , CampaignName  , des , goal));\r\n    deployedCampaigns.push(newCampaign);\r\n    deployed[forWho].push(newCampaign);\r\n    \r\n}  \r\n\r\n\r\nfunction getDeployedCampaigns() public view returns (address[] memory)\r\n{\r\n    return deployedCampaigns;\r\n}\r\nfunction getMyCampaigns(address b) public view returns (address[] memory)\r\n{\r\n    return deployed[b];\r\n}\r\n\r\n    \r\n        \r\n    \r\nfunction remove(uint index) public  {\r\n        if (index >= deployedCampaigns.length) return;\r\n\r\n        for (uint i = index; i<deployedCampaigns.length-1; i++){\r\n            deployedCampaigns[i] = deployedCampaigns[i+1];\r\n        }\r\n        deployedCampaigns.length--;\r\n        \r\n    }\r\n    \r\n}\r\n\r\n\r\ncontract Campaign {\r\n    struct Request {\r\n        string description;\r\n        uint value;\r\n        address payable recipient;\r\n        bool complete;\r\n        uint approvalCount;\r\n        mapping(address=> bool) approvals;\r\n    }\r\n    \r\n    struct Milestone\r\n    {\r\n        string message;\r\n        bool done;\r\n    }\r\n    \r\n    struct Update\r\n    {    string title;\r\n        string message;\r\n        \r\n       \r\n    }\r\n    \r\n    Update[] public updates;\r\n    Milestone[] public milestones;\r\n    Request[] public requests;\r\n    address public manager;\r\n    uint public minimumContribution;\r\n    mapping(address => bool) public approvers;\r\n    uint public approversCount;\r\n    address payable public beneficiary;\r\n    string public title;\r\n    string public purpose;\r\n    uint public goalAmt;\r\n  \r\n  \r\n    modifier restricted() {\r\n        require(msg.sender == manager);\r\n        _;\r\n    }\r\n    \r\n    constructor(uint minimum , address creater , address payable forWho , string memory CampaignName , string memory des, uint goal) public\r\n    {\r\n        manager = creater;\r\n        minimumContribution = minimum;\r\n        beneficiary= forWho;\r\n        title= CampaignName;\r\n        purpose= des;\r\n        goalAmt= goal;\r\n        \r\n    }\r\n    function contribute() public payable\r\n    {\r\n        require(msg.value >= minimumContribution);\r\n        if(approvers[msg.sender]== true)\r\n        {\r\n          Person memory newPerson = Person({\r\n           addr: msg.sender,\r\n           funds: msg.value\r\n         });\r\n         \r\n         people.push(newPerson);   \r\n        }\r\n        else{\r\n             approvers[msg.sender] = true;\r\n        approversCount++;\r\n         Person memory newPerson = Person({\r\n           addr: msg.sender,\r\n           funds: msg.value\r\n         });\r\n         \r\n         people.push(newPerson);  \r\n        }\r\n     \r\n        \r\n    }\r\n    \r\n   function createRequest(string memory description , uint value , address payable recipient) \r\n    public {\r\n         Request memory newRequest = Request({\r\n            description: description,\r\n            value: value,\r\n            recipient: recipient,\r\n            complete: false,\r\n            approvalCount: 0\r\n         });\r\n         \r\n         requests.push(newRequest);\r\n        \r\n    }\r\n    function createMilestone(string memory about) public\r\n    {\r\n        Milestone memory newMilestone = Milestone(\r\n            {\r\n                message: about,\r\n                done: false\r\n            });\r\n            \r\n            milestones.push(newMilestone);\r\n    }\r\n    function createUpdate(string memory ttl, string memory upd) public\r\n    {\r\n        Update memory newUpdate = Update(\r\n            {  title: ttl,\r\n                message: upd\r\n                \r\n                \r\n            });\r\n            \r\n            updates.push(newUpdate);\r\n    }\r\n    function getUpdateCount() public view returns (uint)\r\n    {\r\n        return updates.length;\r\n    }\r\n    function getMilestoneCount() public view returns (uint)\r\n    {\r\n        return milestones.length;\r\n    }\r\n    function approveRequest(uint index) public\r\n    {   Request storage request = requests[index];\r\n        \r\n        require(approvers[msg.sender]);\r\n        require(!request.approvals[msg.sender]);\r\n        //require(address(this).balance > request.value);\r\n        \r\n        request.approvals[msg.sender]= true;\r\n        request.approvalCount++;\r\n    \r\n    }\r\n    function finalizeRequest(uint index) public\r\n    {   Request storage request = requests[index];  \r\n        require(!request.complete);\r\n        require(request.approvalCount > (approversCount/2));\r\n        request.recipient.transfer(request.value);\r\n        request.complete = true;\r\n        Transaction memory newTransaction = Transaction({\r\n                to: request.recipient,\r\n                amount:request.value\r\n            });\r\n            \r\n            transactions.push(newTransaction);\r\n        \r\n    }\r\n    function completeMilestone(uint index) public\r\n    {\r\n     Milestone storage milestone = milestones[index];\r\n    milestone.done = true;\r\n    }\r\n    \r\n    function getSummary() public view returns (uint, uint, uint, uint, address, address, string memory, string memory, uint)\r\n    {\r\n        return (minimumContribution,\r\n        address(this).balance,\r\n        requests.length,\r\n        approversCount,\r\n        manager,\r\n        beneficiary,\r\n        title,\r\n        purpose,\r\n        goalAmt);\r\n    }\r\n   \r\n    function getRequestsCount() public view returns (uint)\r\n    {\r\n        return requests.length;\r\n    }\r\n    struct Person {\r\n        address addr;\r\n        uint funds;\r\n    }\r\n    \r\n    Person[] public people;\r\n    \r\n    function getPeople()\r\n        public view\r\n        returns (address[] memory, uint[] memory)\r\n    {\r\n        address[] memory addrs = new address[](people.length);\r\n        uint[]    memory funds = new uint[](people.length);\r\n        \r\n        for (uint i = 0; i < people.length; i++) {\r\n            Person storage person = people[i];\r\n            addrs[i] = person.addr;\r\n            funds[i] = person.funds;\r\n        }\r\n        \r\n        return (addrs, funds);\r\n    }\r\n   \r\n   \r\n  \r\n     function destruct(address campaignaddr ,address payable to,  uint index ) public\r\n    {   CampaignFactory factory =  CampaignFactory(campaignaddr);\r\n     \r\n     factory.remove(index);\r\n        selfdestruct(to);\r\n       \r\n       \r\n        \r\n    }\r\n     struct Transaction {\r\n        \r\n        address to;\r\n        uint amount;\r\n    }\r\n    Transaction[] public transactions;\r\n\r\n     function getTransactions()\r\n        public view returns (address[] memory,uint[] memory) \r\n        {\r\n           \r\n            address[] memory to1 = new address[](transactions.length);\r\n            uint[] memory amt1 = new uint[](transactions.length);\r\n           \r\n           for(uint i=0 ; i<transactions.length; i++){\r\n                Transaction storage t = transactions[i];\r\n                //sender1[i]= t.sender;\r\n                to1[i] = t.to;\r\n                amt1[i] = t.amount;\r\n            }\r\n           \r\n          return (to1, amt1);\r\n    }\r\n    \r\n   \r\n}",
  "sourcePath": "C:/Users/Ajita.Pancholi/Desktop/ui3/truffle1/contracts/CampaignFactory.sol",
  "compiler": {
    "name": "solc",
    "version": "0.5.0+commit.1d4f565a.Emscripten.clang"
  },
  "schemaVersion": "3.0.0",
  "updatedAt": "2019-01-17T04:12:51.727Z",
  "devdoc": {
    "methods": {}
  },
  "userdoc": {
    "methods": {}
  }
}