{
  "contractName": "Campaign",
  "abi": [
    {
      "constant": true,
      "inputs": [
        {
          "name": "",
          "type": "address"
        }
      ],
      "name": "approvers",
      "outputs": [
        {
          "name": "",
          "type": "bool"
        }
      ],
      "payable": false,
      "stateMutability": "view",
      "type": "function"
    },
    {
      "constant": true,
      "inputs": [],
      "name": "beneficiary",
      "outputs": [
        {
          "name": "",
          "type": "address"
        }
      ],
      "payable": false,
      "stateMutability": "view",
      "type": "function"
    },
    {
      "constant": true,
      "inputs": [],
      "name": "manager",
      "outputs": [
        {
          "name": "",
          "type": "address"
        }
      ],
      "payable": false,
      "stateMutability": "view",
      "type": "function"
    },
    {
      "constant": true,
      "inputs": [],
      "name": "title",
      "outputs": [
        {
          "name": "",
          "type": "string"
        }
      ],
      "payable": false,
      "stateMutability": "view",
      "type": "function"
    },
    {
      "constant": true,
      "inputs": [],
      "name": "purpose",
      "outputs": [
        {
          "name": "",
          "type": "string"
        }
      ],
      "payable": false,
      "stateMutability": "view",
      "type": "function"
    },
    {
      "constant": true,
      "inputs": [
        {
          "name": "",
          "type": "uint256"
        }
      ],
      "name": "requests",
      "outputs": [
        {
          "name": "description",
          "type": "string"
        },
        {
          "name": "value",
          "type": "uint256"
        },
        {
          "name": "recipient",
          "type": "address"
        },
        {
          "name": "complete",
          "type": "bool"
        },
        {
          "name": "approvalCount",
          "type": "uint256"
        }
      ],
      "payable": false,
      "stateMutability": "view",
      "type": "function"
    },
    {
      "constant": true,
      "inputs": [],
      "name": "approversCount",
      "outputs": [
        {
          "name": "",
          "type": "uint256"
        }
      ],
      "payable": false,
      "stateMutability": "view",
      "type": "function"
    },
    {
      "constant": true,
      "inputs": [],
      "name": "minimumContribution",
      "outputs": [
        {
          "name": "",
          "type": "uint256"
        }
      ],
      "payable": false,
      "stateMutability": "view",
      "type": "function"
    },
    {
      "constant": true,
      "inputs": [
        {
          "name": "",
          "type": "uint256"
        }
      ],
      "name": "people",
      "outputs": [
        {
          "name": "addr",
          "type": "address"
        },
        {
          "name": "funds",
          "type": "uint256"
        }
      ],
      "payable": false,
      "stateMutability": "view",
      "type": "function"
    },
    {
      "inputs": [
        {
          "name": "minimum",
          "type": "uint256"
        },
        {
          "name": "creater",
          "type": "address"
        },
        {
          "name": "forWho",
          "type": "address"
        },
        {
          "name": "CampaignName",
          "type": "string"
        },
        {
          "name": "des",
          "type": "string"
        }
      ],
      "payable": false,
      "stateMutability": "nonpayable",
      "type": "constructor"
    },
    {
      "constant": false,
      "inputs": [],
      "name": "contribute",
      "outputs": [],
      "payable": true,
      "stateMutability": "payable",
      "type": "function"
    },
    {
      "constant": false,
      "inputs": [
        {
          "name": "description",
          "type": "string"
        },
        {
          "name": "value",
          "type": "uint256"
        },
        {
          "name": "recipient",
          "type": "address"
        }
      ],
      "name": "createRequest",
      "outputs": [],
      "payable": false,
      "stateMutability": "nonpayable",
      "type": "function"
    },
    {
      "constant": false,
      "inputs": [
        {
          "name": "index",
          "type": "uint256"
        }
      ],
      "name": "approveRequest",
      "outputs": [],
      "payable": false,
      "stateMutability": "nonpayable",
      "type": "function"
    },
    {
      "constant": false,
      "inputs": [
        {
          "name": "index",
          "type": "uint256"
        }
      ],
      "name": "finalizeRequest",
      "outputs": [],
      "payable": false,
      "stateMutability": "nonpayable",
      "type": "function"
    },
    {
      "constant": true,
      "inputs": [],
      "name": "getSummary",
      "outputs": [
        {
          "name": "",
          "type": "uint256"
        },
        {
          "name": "",
          "type": "uint256"
        },
        {
          "name": "",
          "type": "uint256"
        },
        {
          "name": "",
          "type": "uint256"
        },
        {
          "name": "",
          "type": "address"
        },
        {
          "name": "",
          "type": "address"
        },
        {
          "name": "",
          "type": "string"
        },
        {
          "name": "",
          "type": "string"
        }
      ],
      "payable": false,
      "stateMutability": "view",
      "type": "function"
    },
    {
      "constant": true,
      "inputs": [],
      "name": "getRequestsCount",
      "outputs": [
        {
          "name": "",
          "type": "uint256"
        }
      ],
      "payable": false,
      "stateMutability": "view",
      "type": "function"
    },
    {
      "constant": true,
      "inputs": [],
      "name": "getPeople",
      "outputs": [
        {
          "name": "",
          "type": "address[]"
        },
        {
          "name": "",
          "type": "uint256[]"
        }
      ],
      "payable": false,
      "stateMutability": "view",
      "type": "function"
    }
  ],
  "bytecode": "0x60806040523480156200001157600080fd5b506040516200160e3803806200160e833981018060405281019080805190602001909291908051906020019092919080519060200190929190805182019291906020018051820192919050505083600160006101000a81548173ffffffffffffffffffffffffffffffffffffffff021916908373ffffffffffffffffffffffffffffffffffffffff1602179055508460028190555082600560006101000a81548173ffffffffffffffffffffffffffffffffffffffff021916908373ffffffffffffffffffffffffffffffffffffffff1602179055508160069080519060200190620000ff92919062000124565b5080600790805190602001906200011892919062000124565b505050505050620001d3565b828054600181600116156101000203166002900490600052602060002090601f016020900481019282601f106200016757805160ff191683800117855562000198565b8280016001018555821562000198579182015b82811115620001975782518255916020019190600101906200017a565b5b509050620001a79190620001ab565b5090565b620001d091905b80821115620001cc576000816000905550600101620001b2565b5090565b90565b61142b80620001e36000396000f3006080604052600436106100e6576000357c0100000000000000000000000000000000000000000000000000000000900463ffffffff16806303441006146100eb5780630a144391146101185780633410452a1461017357806338af3eed1461019e5780634051ddac146101f5578063481c6a75146103735780634a79d50c146103ca5780634f995d081461045a57806370740aab1461050e57806381d12c581461059e57806382fde093146106905780638a9cfd55146106bb578063937e09b11461074e5780639e7a13ad14610779578063d7bb99ba146107ed578063d7d1bbdb146107f7575b600080fd5b3480156100f757600080fd5b5061011660048036038101908080359060200190929190505050610824565b005b34801561012457600080fd5b50610159600480360381019080803573ffffffffffffffffffffffffffffffffffffffff169060200190929190505050610912565b604051808215151515815260200191505060405180910390f35b34801561017f57600080fd5b50610188610932565b6040518082815260200191505060405180910390f35b3480156101aa57600080fd5b506101b361093e565b604051808273ffffffffffffffffffffffffffffffffffffffff1673ffffffffffffffffffffffffffffffffffffffff16815260200191505060405180910390f35b34801561020157600080fd5b5061020a610964565b604051808981526020018881526020018781526020018681526020018573ffffffffffffffffffffffffffffffffffffffff1673ffffffffffffffffffffffffffffffffffffffff1681526020018473ffffffffffffffffffffffffffffffffffffffff1673ffffffffffffffffffffffffffffffffffffffff1681526020018060200180602001838103835285818151815260200191508051906020019080838360005b838110156102ca5780820151818401526020810190506102af565b50505050905090810190601f1680156102f75780820380516001836020036101000a031916815260200191505b50838103825284818151815260200191508051906020019080838360005b83811015610330578082015181840152602081019050610315565b50505050905090810190601f16801561035d5780820380516001836020036101000a031916815260200191505b509a505050505050505050505060405180910390f35b34801561037f57600080fd5b50610388610b30565b604051808273ffffffffffffffffffffffffffffffffffffffff1673ffffffffffffffffffffffffffffffffffffffff16815260200191505060405180910390f35b3480156103d657600080fd5b506103df610b56565b6040518080602001828103825283818151815260200191508051906020019080838360005b8381101561041f578082015181840152602081019050610404565b50505050905090810190601f16801561044c5780820380516001836020036101000a031916815260200191505b509250505060405180910390f35b34801561046657600080fd5b5061046f610bf4565b604051808060200180602001838103835285818151815260200191508051906020019060200280838360005b838110156104b657808201518184015260208101905061049b565b50505050905001838103825284818151815260200191508051906020019060200280838360005b838110156104f85780820151818401526020810190506104dd565b5050505090500194505050505060405180910390f35b34801561051a57600080fd5b50610523610d47565b6040518080602001828103825283818151815260200191508051906020019080838360005b83811015610563578082015181840152602081019050610548565b50505050905090810190601f1680156105905780820380516001836020036101000a031916815260200191505b509250505060405180910390f35b3480156105aa57600080fd5b506105c960048036038101908080359060200190929190505050610de5565b60405180806020018681526020018573ffffffffffffffffffffffffffffffffffffffff1673ffffffffffffffffffffffffffffffffffffffff16815260200184151515158152602001838152602001828103825287818151815260200191508051906020019080838360005b83811015610651578082015181840152602081019050610636565b50505050905090810190601f16801561067e5780820380516001836020036101000a031916815260200191505b50965050505050505060405180910390f35b34801561069c57600080fd5b506106a5610eef565b6040518082815260200191505060405180910390f35b3480156106c757600080fd5b5061074c600480360381019080803590602001908201803590602001908080601f016020809104026020016040519081016040528093929190818152602001838380828437820191505050505050919291929080359060200190929190803573ffffffffffffffffffffffffffffffffffffffff169060200190929190505050610ef5565b005b34801561075a57600080fd5b50610763611010565b6040518082815260200191505060405180910390f35b34801561078557600080fd5b506107a460048036038101908080359060200190929190505050611016565b604051808373ffffffffffffffffffffffffffffffffffffffff1673ffffffffffffffffffffffffffffffffffffffff1681526020018281526020019250505060405180910390f35b6107f5611069565b005b34801561080357600080fd5b506108226004803603810190808035906020019092919050505061119d565b005b6000808281548110151561083457fe5b906000526020600020906005020190508060020160149054906101000a900460ff1615151561086257600080fd5b600260045481151561087057fe5b04816003015411151561088257600080fd5b8060020160009054906101000a900473ffffffffffffffffffffffffffffffffffffffff1673ffffffffffffffffffffffffffffffffffffffff166108fc82600101549081150290604051600060405180830381858888f193505050501580156108f0573d6000803e3d6000fd5b5060018160020160146101000a81548160ff0219169083151502179055505050565b60036020528060005260406000206000915054906101000a900460ff1681565b60008080549050905090565b600560009054906101000a900473ffffffffffffffffffffffffffffffffffffffff1681565b6000806000806000806060806002543073ffffffffffffffffffffffffffffffffffffffff1631600080549050600454600160009054906101000a900473ffffffffffffffffffffffffffffffffffffffff16600560009054906101000a900473ffffffffffffffffffffffffffffffffffffffff1660066007818054600181600116156101000203166002900480601f016020809104026020016040519081016040528092919081815260200182805460018160011615610100020316600290048015610a735780601f10610a4857610100808354040283529160200191610a73565b820191906000526020600020905b815481529060010190602001808311610a5657829003601f168201915b50505050509150808054600181600116156101000203166002900480601f016020809104026020016040519081016040528092919081815260200182805460018160011615610100020316600290048015610b0f5780601f10610ae457610100808354040283529160200191610b0f565b820191906000526020600020905b815481529060010190602001808311610af257829003601f168201915b50505050509050975097509750975097509750975097509091929394959697565b600160009054906101000a900473ffffffffffffffffffffffffffffffffffffffff1681565b60068054600181600116156101000203166002900480601f016020809104026020016040519081016040528092919081815260200182805460018160011615610100020316600290048015610bec5780601f10610bc157610100808354040283529160200191610bec565b820191906000526020600020905b815481529060010190602001808311610bcf57829003601f168201915b505050505081565b606080606080600080600880549050604051908082528060200260200182016040528015610c315781602001602082028038833980820191505090505b509350600880549050604051908082528060200260200182016040528015610c685781602001602082028038833980820191505090505b509250600091505b600880549050821015610d3957600882815481101515610c8c57fe5b906000526020600020906002020190508060000160009054906101000a900473ffffffffffffffffffffffffffffffffffffffff168483815181101515610ccf57fe5b9060200190602002019073ffffffffffffffffffffffffffffffffffffffff16908173ffffffffffffffffffffffffffffffffffffffff168152505080600101548383815181101515610d1e57fe5b90602001906020020181815250508180600101925050610c70565b838395509550505050509091565b60078054600181600116156101000203166002900480601f016020809104026020016040519081016040528092919081815260200182805460018160011615610100020316600290048015610ddd5780601f10610db257610100808354040283529160200191610ddd565b820191906000526020600020905b815481529060010190602001808311610dc057829003601f168201915b505050505081565b600081815481101515610df457fe5b9060005260206000209060050201600091509050806000018054600181600116156101000203166002900480601f016020809104026020016040519081016040528092919081815260200182805460018160011615610100020316600290048015610ea05780601f10610e7557610100808354040283529160200191610ea0565b820191906000526020600020905b815481529060010190602001808311610e8357829003601f168201915b5050505050908060010154908060020160009054906101000a900473ffffffffffffffffffffffffffffffffffffffff16908060020160149054906101000a900460ff16908060030154905085565b60045481565b610efd6112e2565b60a0604051908101604052808581526020018481526020018373ffffffffffffffffffffffffffffffffffffffff16815260200160001515815260200160008152509050600081908060018154018082558091505090600182039060005260206000209060050201600090919290919091506000820151816000019080519060200190610f8b92919061132a565b506020820151816001015560408201518160020160006101000a81548173ffffffffffffffffffffffffffffffffffffffff021916908373ffffffffffffffffffffffffffffffffffffffff16021790555060608201518160020160146101000a81548160ff0219169083151502179055506080820151816003015550505050505050565b60025481565b60088181548110151561102557fe5b90600052602060002090600202016000915090508060000160009054906101000a900473ffffffffffffffffffffffffffffffffffffffff16908060010154905082565b6110716113aa565b6002543411151561108157600080fd5b6001600360003373ffffffffffffffffffffffffffffffffffffffff1673ffffffffffffffffffffffffffffffffffffffff16815260200190815260200160002060006101000a81548160ff02191690831515021790555060046000815480929190600101919050555060408051908101604052803373ffffffffffffffffffffffffffffffffffffffff1681526020013481525090506008819080600181540180825580915050906001820390600052602060002090600202016000909192909190915060008201518160000160006101000a81548173ffffffffffffffffffffffffffffffffffffffff021916908373ffffffffffffffffffffffffffffffffffffffff1602179055506020820151816001015550505050565b600080828154811015156111ad57fe5b90600052602060002090600502019050600360003373ffffffffffffffffffffffffffffffffffffffff1673ffffffffffffffffffffffffffffffffffffffff16815260200190815260200160002060009054906101000a900460ff16151561121557600080fd5b8060040160003373ffffffffffffffffffffffffffffffffffffffff1673ffffffffffffffffffffffffffffffffffffffff16815260200190815260200160002060009054906101000a900460ff1615151561127057600080fd5b60018160040160003373ffffffffffffffffffffffffffffffffffffffff1673ffffffffffffffffffffffffffffffffffffffff16815260200190815260200160002060006101000a81548160ff02191690831515021790555080600301600081548092919060010191905055505050565b60a0604051908101604052806060815260200160008152602001600073ffffffffffffffffffffffffffffffffffffffff168152602001600015158152602001600081525090565b828054600181600116156101000203166002900490600052602060002090601f016020900481019282601f1061136b57805160ff1916838001178555611399565b82800160010185558215611399579182015b8281111561139857825182559160200191906001019061137d565b5b5090506113a691906113da565b5090565b6040805190810160405280600073ffffffffffffffffffffffffffffffffffffffff168152602001600081525090565b6113fc91905b808211156113f85760008160009055506001016113e0565b5090565b905600a165627a7a72305820281733a239eca07c0e686571b18515a72ccb500232d1ee6d121ed6ee3524d6440029",
  "source": "pragma solidity ^0.4.17;\r\n\r\ncontract CampaignFactory {\r\n    address[] public deployedCampaigns;\r\n    mapping(address=> address[]) deployed;\r\n    \r\n    \r\n    function createCampaign(uint minimum , address forWho , string CampaignName , string des) public {\r\n    address newCampaign = new Campaign(minimum , msg.sender , forWho , CampaignName  , des);\r\n    deployedCampaigns.push(newCampaign);\r\n    deployed[forWho].push(newCampaign);\r\n    \r\n}  \r\n\r\nfunction getDeployedCampaigns() public view returns (address[])\r\n{\r\n    return deployedCampaigns;\r\n}\r\nfunction getMyCampaigns(address b) public view returns (address[])\r\n{\r\n    return deployed[b];\r\n}\r\n\r\n\r\n}\r\n\r\ncontract Campaign {\r\n    struct Request {\r\n        string description;\r\n        uint value;\r\n        address recipient;\r\n        bool complete;\r\n        uint approvalCount;\r\n        mapping(address=> bool) approvals;\r\n    }\r\n    \r\n    \r\n    Request[] public requests;\r\n    address public manager;\r\n    uint public minimumContribution;\r\n    mapping(address => bool) public approvers;\r\n    uint public approversCount;\r\n    address public beneficiary;\r\n    string public title;\r\n    string public purpose;\r\n    \r\n    modifier restricted() {\r\n        require(msg.sender == manager);\r\n        _;\r\n    }\r\n    \r\n    constructor(uint minimum , address creater , address forWho , string CampaignName , string des) public\r\n    {\r\n        manager = creater;\r\n        minimumContribution = minimum;\r\n        beneficiary= forWho;\r\n        title= CampaignName;\r\n        purpose= des;\r\n        \r\n    }\r\n    function contribute() public payable\r\n    {\r\n        require(msg.value > minimumContribution);\r\n        approvers[msg.sender] = true;\r\n        approversCount++;\r\n         Person memory newPerson = Person({\r\n           addr: msg.sender,\r\n           funds: msg.value\r\n         });\r\n         \r\n         people.push(newPerson);\r\n        \r\n    }\r\n    function createRequest(string description , uint value , address recipient) \r\n    public {\r\n         Request memory newRequest = Request({\r\n            description: description,\r\n            value: value,\r\n            recipient: recipient,\r\n            complete: false,\r\n            approvalCount: 0\r\n         });\r\n         \r\n         requests.push(newRequest);\r\n        \r\n    }\r\n    function approveRequest(uint index) public\r\n    {   Request storage request = requests[index];\r\n        \r\n        require(approvers[msg.sender]);\r\n        require(!request.approvals[msg.sender]);\r\n        \r\n        request.approvals[msg.sender]= true;\r\n        request.approvalCount++;\r\n        \r\n    }\r\n    function finalizeRequest(uint index) public\r\n    {   Request storage request = requests[index];  \r\n        require(!request.complete);\r\n        require(request.approvalCount > (approversCount/2));\r\n        request.recipient.transfer(request.value);\r\n        request.complete = true;\r\n        \r\n    }\r\n    function getSummary() public view returns (uint, uint, uint, uint, address, address, string, string)\r\n    {\r\n        return (minimumContribution,\r\n        address(this).balance,\r\n        requests.length,\r\n        approversCount,\r\n        manager,\r\n        beneficiary,\r\n        title,\r\n        purpose);\r\n    }\r\n   \r\n    function getRequestsCount() public view returns (uint)\r\n    {\r\n        return requests.length;\r\n    }\r\n    struct Person {\r\n        address addr;\r\n        uint funds;\r\n    }\r\n    \r\n    Person[] public people;\r\n    \r\n    function getPeople()\r\n        public view\r\n        returns (address[], uint[])\r\n    {\r\n        address[] memory addrs = new address[](people.length);\r\n        uint[]    memory funds = new uint[](people.length);\r\n        \r\n        for (uint i = 0; i < people.length; i++) {\r\n            Person storage person = people[i];\r\n            addrs[i] = person.addr;\r\n            funds[i] = person.funds;\r\n        }\r\n        \r\n        return (addrs, funds);\r\n    }\r\n   \r\n}",
  "sourcePath": "C:\\Users\\Ajita.Pancholi\\Desktop\\ui3\\truf\\contracts\\CampaignFactory.sol",
  "compiler": {
    "name": "solc",
    "version": "0.4.24+commit.e67f0147.Emscripten.clang"
  },
  "schemaVersion": "2.0.1",
  "updatedAt": "2018-12-24T13:26:34.826Z"
}